{
  "address": "0xb676eE92D2Ee85A18C73B8B35277b6a15d0E43cC",
  "abi": [
    {
      "inputs": [
        {
          "internalType": "uint256",
          "name": "_projectCost",
          "type": "uint256"
        }
      ],
      "stateMutability": "nonpayable",
      "type": "constructor"
    },
    {
      "inputs": [],
      "name": "PaymentContract__NotEnoughEth",
      "type": "error"
    },
    {
      "inputs": [],
      "name": "PaymentContract__NotOwner",
      "type": "error"
    },
    {
      "inputs": [],
      "name": "PaymentContract__PaymentAlreadyMade",
      "type": "error"
    },
    {
      "inputs": [],
      "name": "PaymentContract__PaymentGraterThan0",
      "type": "error"
    },
    {
      "anonymous": false,
      "inputs": [
        {
          "indexed": true,
          "internalType": "address",
          "name": "_from",
          "type": "address"
        },
        {
          "indexed": false,
          "internalType": "uint256",
          "name": "_amount",
          "type": "uint256"
        }
      ],
      "name": "PaymentReceived",
      "type": "event"
    },
    {
      "stateMutability": "payable",
      "type": "fallback"
    },
    {
      "inputs": [],
      "name": "deposit",
      "outputs": [],
      "stateMutability": "payable",
      "type": "function"
    },
    {
      "inputs": [],
      "name": "getBalance",
      "outputs": [
        {
          "internalType": "uint256",
          "name": "",
          "type": "uint256"
        }
      ],
      "stateMutability": "view",
      "type": "function"
    },
    {
      "inputs": [],
      "name": "getProjectCost",
      "outputs": [
        {
          "internalType": "uint256",
          "name": "",
          "type": "uint256"
        }
      ],
      "stateMutability": "view",
      "type": "function"
    },
    {
      "inputs": [],
      "name": "makePayment",
      "outputs": [],
      "stateMutability": "nonpayable",
      "type": "function"
    },
    {
      "stateMutability": "payable",
      "type": "receive"
    }
  ],
  "transactionHash": "0x3ce9946a2c77ff5551c245a87205a6a0e114a064b581765c8f9c93f5cc16d514",
  "args": [
    "200000000000000000"
  ],
  "numDeployments": 1,
  "solcInputHash": "58024c4e686079da3cf3ecf304790127",
  "bytecode": "0x60a060405234801561001057600080fd5b506040516104f63803806104f6833981810160405281019061003291906100d1565b3373ffffffffffffffffffffffffffffffffffffffff1660808173ffffffffffffffffffffffffffffffffffffffff16815250508060008190555060006001819055506000600260006101000a81548160ff021916908315150217905550506100fe565b600080fd5b6000819050919050565b6100ae8161009b565b81146100b957600080fd5b50565b6000815190506100cb816100a5565b92915050565b6000602082840312156100e7576100e6610096565b5b60006100f5848285016100bc565b91505092915050565b6080516103d661012060003960008181610172015261027c01526103d66000f3fe6080604052600436106100435760003560e01c806312065fe01461004c578063d0e30db014610077578063d8d7970014610081578063ed1da6ce146100985761004a565b3661004a57005b005b34801561005857600080fd5b506100616100c3565b60405161006e9190610322565b60405180910390f35b61007f6100cd565b005b34801561008d57600080fd5b50610096610170565b005b3480156100a457600080fd5b506100ad610300565b6040516100ba9190610322565b60405180910390f35b6000600154905090565b60003411610107576040517fe51aaefd00000000000000000000000000000000000000000000000000000000815260040160405180910390fd5b3373ffffffffffffffffffffffffffffffffffffffff167f6ef95f06320e7a25a04a175ca677b7052bdd97131872c2192525a629f51be7703460405161014d9190610322565b60405180910390a23460016000828254610167919061036c565b92505081905550565b7f000000000000000000000000000000000000000000000000000000000000000073ffffffffffffffffffffffffffffffffffffffff163373ffffffffffffffffffffffffffffffffffffffff16146101f5576040517ff72e94e100000000000000000000000000000000000000000000000000000000815260040160405180910390fd5b6000546001541015610233576040517f3ce47d7000000000000000000000000000000000000000000000000000000000815260040160405180910390fd5b600260009054906101000a900460ff161561027a576040517f10320a7300000000000000000000000000000000000000000000000000000000815260040160405180910390fd5b7f000000000000000000000000000000000000000000000000000000000000000073ffffffffffffffffffffffffffffffffffffffff166108fc6001549081150290604051600060405180830381858888f193505050501580156102e2573d6000803e3d6000fd5b506001600260006101000a81548160ff021916908315150217905550565b60008054905090565b6000819050919050565b61031c81610309565b82525050565b60006020820190506103376000830184610313565b92915050565b7f4e487b7100000000000000000000000000000000000000000000000000000000600052601160045260246000fd5b600061037782610309565b915061038283610309565b925082820190508082111561039a5761039961033d565b5b9291505056fea264697066735822122085c65bd9f2544dafaa73ef22df7bb92d619efde6390a50ca19c8a01e26d7b1bb64736f6c63430008120033",
  "devdoc": {
    "kind": "dev",
    "methods": {},
    "version": 1
  },
  "userdoc": {
    "kind": "user",
    "methods": {},
    "version": 1
  },
  "storageLayout": {
    "storage": [
      {
        "astId": 14,
        "contract": "contracts/PaymentContract.sol:PaymentContract",
        "label": "projectCost",
        "offset": 0,
        "slot": "0",
        "type": "t_uint256"
      },
      {
        "astId": 16,
        "contract": "contracts/PaymentContract.sol:PaymentContract",
        "label": "balance",
        "offset": 0,
        "slot": "1",
        "type": "t_uint256"
      },
      {
        "astId": 18,
        "contract": "contracts/PaymentContract.sol:PaymentContract",
        "label": "isPaid",
        "offset": 0,
        "slot": "2",
        "type": "t_bool"
      }
    ],
    "types": {
      "t_bool": {
        "encoding": "inplace",
        "label": "bool",
        "numberOfBytes": "1"
      },
      "t_uint256": {
        "encoding": "inplace",
        "label": "uint256",
        "numberOfBytes": "32"
      }
    }
  }
}